S01E00006E6A696D653033355F66696E616C5F70726F6A6563742E737265639C
S113000045C0000053C0000051C000004FC00000B4
S11300104DC000004BC0000049C0000047C00000B4
S113002045C0000043C0000041C000003FC00000C4
S11300303DC000003BC0000039C0000037C00000D4
S113004035C0000033C0000031C000003BC00000D8
S11300502DC000002BC0000029C0000027C00000F4
S113006025C0000023C0000021C000001FC0000004
S11300701DC000001BC0000019C0000017C0000014
S113008015C0000013C0000011C0000011241FBEE1
S1130090CFEFD0E4DEBFCDBF21E0A0E0B1E001C0EE
S11300A01D92A530B207E1F77ED033C2A9CF269ABC
S11300B084B18F7484B98CB5806C8CBD8FB7806823
S11300C08FBF08951F920F920FB60F9211248F9332
S11300D08EB5809304018F910F900FBE0F901F90E7
S11300E01895CF92DF92EF92FF926B017C019B01F6
S11300F0AC01609100017091010180910201909125
S113010003018ED0882309F440C020E030E0A90127
S1130110C701B60185D0811104C085B5887085BD3D
S113012003C085B5836085BD28E539E344E75FE313
S1130130C701B60175D088231CF48FEF87BD1CC09E
S113014020E034E244EF56E4C701B6017BD118162F
S113015014F417BC11C020E030E040E053E4C701C0
S1130160B60174D19B01AC0160E074E284EF9AE4BF
S11301705BD0C2D0615067BD16BCC0920001D09262
S11301800101E0920201F0920301FF90EF90DF90F1
S1130190CF90089589E484BD8BE085BD60E070E074
S11301A0CB019FCF08958FEF84B915B811B882B9E8
S11301B07EDFF0DF60E070E884E094E492DF809119
S11301C004018130E1F460E070E88DE694E489DFB5
S11301D02FEF89E698E1215080409040E1F700C07C
S11301E0000060E070E0CB017CDF2FEF89E698E14E
S11301F0215080409040E1F700C00000E0CF811121
S1130200DECF60E070E884E094E46BDF2FEF89E6F2
S113021098E1215080409040E1F700C00000CFCF2A
S11302209CD008F481E008950CD0D2C0CAD040F02C
S1130230C1D030F021F45F3F19F0B3C05111FCC0BC
S1130240B6C0D7D098F39923C9F35523B1F3951BBE
S1130250550BBB27AA2762177307840738F09F5FE3
S11302605F4F220F331F441FAA1FA9F333D00E2E52
S11302703AF0E0E830D091505040E695001CCAF7BF
S113028029D0FE2F27D0660F771F881FBB1F261784
S113029037074807AB07B0E809F0BB0B802DBF0157
S11302A0FF2793585F4F2AF09E3F510568F079C0AD
S11302B0C3C05F3FECF3983EDCF386957795679572
S11302C0B795F7959F5FC9F7880F911D9695879508
S11302D097F90895E1E0660F771F881FBB1F621727
S11302E073078407BA0720F0621B730B840BBA0BE5
S11302F0EE1F88F7E095089504D06894B1119CC06E
S113030008957FD088F09F5790F0B92F9927B7515F
S1130310A0F0D1F0660F771F881F991F1AF0BA95C5
S1130320C9F712C0B13081F086D0B1E0089583C01E
S1130330672F782F8827B85F39F0B93FCCF38695BB
S113034077956795B395D9F73EF490958095709518
S113035061957F4F8F4F9F4F0895990F0008550F58
S1130360AA0BE0E8FEEF16161706E807F907C0F037
S113037012161306E407F50798F0621B730B840B3F
S1130380950B39F40A2661F0232B242B252B21F419
S113039008950A2609F4A140A6958FEF811D811DB9
S11303A0089597F99F6780E870E060E008959FEFF3
S11303B080EC089500240A941616170618060906F8
S11303C0089500240A9412161306140605060895C7
S11303D0092E0394000C11F4882352F0BB0F40F44F
S11303E0BF2B11F460FF04C06F5F7F4F8F4F9F4F8F
S11303F0089557FD9058440F551F59F05F3F71F011
S11304004795880F97FB991F61F09F3F79F0879577
S11304100895121613061406551FF2CF4695F1DF00
S113042008C0161617061806991FF1CF8695710590
S1130430610508940895E894BB2766277727CB01C4
S113044097F908958ADF08F48FEF08950BD0C0CF91
S1130450B1DF28F0B6DF18F0952309F0A2CFA7CFBB
S11304601124EACFC6DFA0F3959FD1F3950F50E096
S1130470551F629FF001729FBB27F00DB11D639F52
S1130480AA27F00DB11DAA1F649F6627B00DA11DF8
S1130490661F829F2227B00DA11D621F739FB00D9E
S11304A0A11D621F839FA00D611D221F749F33270E
S11304B0A00D611D231F849F600D211D822F762FA7
S11304C06A2F11249F5750408AF0E1F088234AF0A4
S11304D0EE0FFF1FBB1F661F771F881F91505040F0
S11304E0A9F79E3F510570F05CCFA6CF5F3FECF3B8
S11304F0983EDCF3869577956795B795F795E795DC
S11305009F5FC1F7FE2B880F911D9695879597F9EC
S10905100895F894FFCFEA
S9030000FC
